:0600000002000E02021DC9
:10000B0002009A787FE4F6D8FD75810F0200550245
:10001B000262E493A3F8E493A34003F68001F20891
:10002B00DFF48029E493A3F85407240CC8C333C42A
:10003B00540F4420C8834004F456800146F6DFE495
:10004B00800B0102040810204080900255E47E01D1
:10005B009360BCA3FF543F30E509541FFEE493A308
:10006B0060010ECF54C025E060A840B8E493A3FA1A
:10007B00E493A3F8E493A3C8C582C8CAC583CAF0A6
:10008B00A3C8C582C8CAC583CADFE9DEE780BEC084
:10009B00E0C0F0C083C082C0D075D000C000C001EA
:1000AB00C002C003C004C005C006C007758CFF7535
:1000BB008AF6C3E50F9464E50E94004006750E00B6
:1000CB00750F00C3E50F9509E50E950850067D01E8
:1000DB007C008003E4FDFCAF0BAE0A1201C9050FD7
:1000EB00E50F7002050ED007D006D005D004D00363
:1000FB00D002D001D000D0D0D082D083D0F0D0E0CD
:10010B0032C3E5099464E5089400500C7407250983
:10011B00F509E41201F780E9E50D450C6019050BB3
:10012B00E50B7002050AC39405E50A94004021759E
:10013B000A00750B018019E50B150B7002150AD31C
:10014B00E50B9400E50A94005006750A00750B0543
:10015B00D3E5099400E5089400400D74F92509F5E1
:10016B000974FF1201F780E822BC000BBE0029EFD7
:10017B008DF084FFADF022E4CCF875F008EF2FFF83
:10018B00EE33FEEC33FCEE9DEC984005FCEE9DFE51
:10019B000FD5F0E9E4CEFD22EDF8F5F0EE8420D298
:1001AB001CFEADF075F008EF2FFFED33FD40079807
:1001BB005006D5F0F222C398FD0FD5F0EA22EE706F
:1001CB002AEF24FE60111460151460192403701BB0
:1001DB00EC4D24FF929022EC4D24FF929122EC4D9A
:1001EB0024FF929222EC4D24FF9293223508F508BE
:1001FB007F017E00D3EF9400EE940040147D707C61
:10020B0000ED1D70011CED4C70F7EF1F70E61E80AA
:10021B00E322C0E0C0D075D000C007E50D450C7FD0
:10022B000070027F01750C008F0DD007D0D0D0E08D
:10023B0032D2AF758CFF758AF6D2A9D28CD2A8D2E6
:10024B0088D290D291D292D29322020C0000020853
:0F025B000000020A00010012023C12010C80FB9D
:00000001FF
