:060000000200A702029BB2
:10000B000201B5C3E5099464E5089400500FE50BB4
:10001B002509F509E50A350812025580E6E50F4575
:10002B000E6019050DE50D7002050CC39405E50C6A
:10003B0094004021750C00750D018019E50D150D0F
:10004B007002150CD3E50D9400E50C940050067569
:10005B000C00750D05E50D2440FF1202EA30981CCB
:10006B00C2ACAF99750A008F0B1202EA74D0250B44
:10007B00F50B74FF350AF50AC298D2ACE4F515F509
:10008B0016D3E5099400E5089400400FE509950B9C
:10009B00F509E508950A12025580E622787FE4F609
:1000AB00D8FD7581160200EE0202F5E493A3F8E485
:1000BB0093A34003F68001F208DFF48029E493A3B5
:1000CB00F85407240CC8C333C4540F4420C88340CE
:1000DB0004F456800146F6DFE4800B01020408109D
:1000EB002040809002D2E47E019360BCA3FF543F7A
:1000FB0030E509541FFEE493A360010ECF54C025D5
:10010B00E060A840B8E493A3FAE493A3F8E493A3C4
:10011B00C8C582C8CAC583CAF0A3C8C582C8CAC528
:10012B0083CADFE9DEE780BEBB010CE58229F582DD
:10013B00E5833AF583E0225006E92582F8E622BBF7
:10014B00FE06E92582F8E222E58229F582E5833A6B
:10015B00F583E49322BC000BBE0029EF8DF084FFE6
:10016B00ADF022E4CCF875F008EF2FFFEE33FEEC88
:10017B0033FCEE9DEC984005FCEE9DFE0FD5F0E9AF
:10018B00E4CEFD22EDF8F5F0EE8420D21CFEADF0AE
:10019B0075F008EF2FFFED33FD4007985006D5F0B3
:1001AB00F222C398FD0FD5F0EA22C0E0C0F0C08365
:1001BB00C082C0D075D000C000C001C002C003C057
:1001CB0004C005C006C007758CFF758AF6C3E5121F
:1001DB009464E51194004006751100751200C3E597
:1001EB00129509E511950850067D017C008003E40A
:1001FB00FDFCAF0DAE0C1202270512E512700205C5
:10020B0011D007D006D005D004D003D002D001D036
:10021B0000D0D0D082D083D0F0D0E032EE702AEF75
:10022B0024FE60111460151460192403701BEC4D2F
:10023B0024FF929022EC4D24FF929122EC4D24FF4F
:10024B00929222EC4D24FF929322F5087F017E00BF
:10025B00D3EF9400EE940040147D707C00ED1D7084
:10026B00011CED4C70F7EF1F70E61E80E3227589C1
:10027B0001D2AF758CFF758AF6D2A9D28CD2A8D2D7
:10028B0088D290D291D292D2937FFD7E000202BA95
:10029B00C0E0C0D075D000C007E50F450E7F0070E1
:1002AB00027F01750E008F0FD007D0D0D0E032D275
:1002BB00AFD2ACD29C758920D28E8F8D8F8BC29F83
:1002CB00D29EC298C2992202150000020A000701B1
:1002DB001000020E000002080000020C00010020BA
:1002EB0098078F993099FDC2992212027912000E4C
:0202FB0080FB86
:00000001FF
