:100000000209760205C5E532C4540F75F00AA4FF53
:10001000E532540F2FF51DE530C4540F75F00AA4D6
:10002000FFE530540F2FF554E52FC4540F75F00A37
:10003000A4FFE52F540F2FF55575F002E51DA424FC
:100040006EF582E5F034FFF583E493F57274019365
:10005000F5737E0054607805CEC313CE13D8F964CF
:10006000014E700FE573541F24FFF56BE434FFF568
:100070006A800CE573541F241EF56BE433F56AE5C2
:100080005425E024F4F582E4340EF58374019325BD
:1000900055FFE4933400CF24FFCF34FF8F82F583E4
:1000A000E51D5403700CD3E5549402748094804091
:1000B00001A3C3E582956BE583956A500302018035
:1000C000E582956BF582E583956AF5837554017534
:1000D0006E00756F01E4F570F571E56F14F9E4FFDA
:1000E000FE7D08FCA8011208C9A905AA06AB07EB0A
:1000F0005573FFEA5572FEEE4F7077806EC3E5824E
:10010000956DE583956C4072E582956DF582E5838A
:10011000956CF583056FE56F7002056EE4FCFDFFDD
:10012000FE78141208C9A804A905AA06AB07AF54A3
:10013000E4FCFDFEC31208B370106371FF6370FF2F
:10014000E57145707006055480020554E56F14F999
:10015000E4FFFE7D08FCA8011208C9AA06AB07EB64
:100160005573FFEA5572FEEE4F7007F56C756D1D05
:10017000808B756C00756D1E8083AF82EF02025517
:10018000C3E56B9582F56BE56A9583F56A151D7578
:10019000540CE4FCFDFFFE78141208C9EC4D4E4FE0
:1001A0007007F56E756F0C8006756E00756F0DE447
:1001B000F570F571E56F14F9E4FFFE7D08FCA80108
:1001C0001208C9A905AA06AB07EB5573FFEA5572D9
:1001D000FEEE4F7073806AD3E56B956DE56A956CA2
:1001E000406EE56B956DF56BE56A956CF56AE56FAC
:1001F000156F7002156EE571457070021554E4FCC0
:10020000FDFFFE78141208C9A804A905AA06AB07C9
:10021000AF54E4FCFDFEC31208B370066371FF63C4
:1002200070FFE56F14F9E4FFFE7D08FCA8011208D9
:10023000C9AA06AB07EB5573FFEA5572FEEE4F7085
:1002400007F56C756D1D808F756C00756D1E808750
:10025000C3E56D956B04F55522120AE3120CC27BBF
:10026000FF7A0E79577F017E001208E575352075FB
:100270003620753732753830E532C4540F2430F5E6
:1002800039E532540F2430F53A753B2DE530C4542E
:100290000F2430F53CE530540F2430F53D753E2DEC
:1002A000E52FC4540F2430F53FE52F540F2430F5CB
:1002B00040754120754220754320E531540F2430AC
:1002C000F544E4F545FB7A0079357F02FE1208E536
:1002D0007BFF7A0E79687F037E001208E575352072
:1002E000753620753720753820E52EC4540F24301C
:1002F000F539E52E540F2430F53AE55B6005753B82
:100300003A8003753B20E52DC4540F2430F53CE5BD
:100310002D540F2430F53DE55B6005753E3A8003B2
:10032000753E20E52CC4540F2430F53FE52C540FC6
:100330002430F540E4F541FB7A0079357F04FE1264
:1003400008E57BFF7A0E79717F057E001208E5755E
:100350003520753620753732753830E51D75F00A51
:10036000842430F539E51D75F00A84E5F02430F574
:100370003A753B2DE55475F00A842430F53CE5547C
:1003800075F00A84E5F02430F53D753E2DE5557590
:10039000F00A842430F53FE55575F00A84E5F02431
:1003A00030F540E4F541FB7A0079357F06FE12080E
:1003B000E57BFF7A0E797A7F077E001208E5AE5959
:1003C000AF5A7C007D0A12085EEF2430F535AE5935
:1003D000AF5A7C007D0A12085EED2430F536753781
:1003E00020753820753920753A20753B20753C20E2
:1003F000AE33AF347C007D0A12085EEF2430F53D49
:10040000AE33AF347C007D0A12085EED2430F53E39
:10041000E4F53FFB7A0079357F08FE0208E5E50840
:10042000640E60030204DAE51B6401703A120C37B3
:10043000E51C14601714601F14601E2403702875D7
:100440001B02120CC27F057E00020704751B0312FB
:100450000DDE7F050205BF800A120DDEE4120C37A7
:10046000120006E4F51B22E51B64027005120BCB9B
:100470008009E51B6403700D120C9FE4120C37E435
:10048000F51BF51C22AF1B7E00EF64047003F51B07
:1004900022EF4E7045120C3BE4FF120DF97BFF7A00
:1004A0000E79B27F017E001208E57BFF7A0E79C3D8
:1004B0007F027E001208E57BFF7A0E79D47F037EEF
:1004C000001208E57BFF7A0E79E57F047E001208B2
:1004D000E5E4FFFE120A7C751B01E508640A704B17
:1004E000E51B701674E02517F5173395E0C364809B
:1004F00094805003751740120C29E51B640170139A
:10050000151CC3748094805003751C03AF1C7E00BF
:10051000120A7CE51B640270067F01FE120E1FE5C5
:100520001B640370067F01FE120E0AE50864027068
:1005300053E51B701C74202517F517FF3395E0FE5B
:10054000D3EF9440EE648094804003E4F517120CDE
:1005500029E51B64017017051CD3E51C9403748006
:1005600094804003E4F51CAF1C7E00120A7CE51B5E
:1005700064027005FFFE120E1FE51B64037005FF89
:10058000FE120E0AE5086401703AE51B640270175A
:100590000558D3E5589406748094804003E4F558D8
:1005A000AF587E00120704E51B640370170558D38B
:1005B000E5589402748094804003E4F558AF587E67
:1005C00000120A0222C0E0C0F0C083C082C0D07511
:1005D000D000C000C001C002C003C004C005C006F6
:1005E000C0077553007FBC7E02120E3830B2030282
:1005F00006E97BE87A0320B213D3EB9400EA940077
:10060000400A120E34EB1B70ED1A80EA20B203028E
:1006100006E37A017BF430B213D3EB9400EA940042
:10062000400A120E34EB1B70ED1A80EAE4FDEDC3B4
:1006300094107480948050407A007B3C20B213D395
:10064000EB9400EA9400400A120E34EB1B70ED1A92
:1006500080EA7A017BF430B219D3EB9400EA94007B
:1006600040107F0A7E00120E380553EB1B70E71A0C
:1006700080E47553000D80B67D00EDC3940874804E
:100680009480505F7A007B3C20B213D3EB9400EA55
:100690009400400A120E34EB1B70ED1A80EA7A01C6
:1006A0007BF430B224D3EB9400EA9400401B7F0A21
:1006B0007E00120E380553EB1B70011AD3E55394DC
:1006C0001E7480948040DB8020E508C313F508C3C6
:1006D000E553940874809480400343088075530068
:1006E0000D809753080F12041ED007D006D005D0F6
:1006F00004D003D002D001D000D0D0D082D083D09B
:10070000F0D0E0328E5D8F5E7BFF7A0E799A7F01AA
:100710007E001208E5E532C4540F2430F535E53289
:10072000540F2430F53675372D75382DE530C45407
:100730000F2430F539E530540F2430F53A753B2D50
:10074000753C2DE52FC4540F2430F53DE52F540F93
:100750002430F53E753F20754020E531C4540F2408
:1007600030F541E531540F2430F542E4F543FB7A8E
:100770000079357F02FE1208E57BFF7A0E79A97FAA
:10078000037E001208E5E52EC4540F2430F535E54C
:100790002E540F2430F53675373A75383AE52DC4A6
:1007A000540F2430F539E52D540F2430F53A753BBC
:1007B0003A753C3AE52CC4540F2430F53DE52C54F1
:1007C0000F2430F53EE4F53FFB7A0079357F04FED7
:1007D0001208E5E558B4070050399007E1F82828D9
:1007E0007302080E02080A0208060208020207FE47
:1007F0000207FA0207F67F9080167F9680127F929A
:10080000800E7F94800A7F9880067F9A80027F9C6A
:10081000120DF97F0F020DF9BB010689828A83E070
:10082000225002E722BBFE02E32289828A83E493FC
:1008300022BB010CE58229F582E5833AF583E022AB
:100840005006E92582F8E622BBFE06E92582F8E299
:1008500022E58229F582E5833AF583E49322BC0000
:100860000BBE0029EF8DF084FFADF022E4CCF875CB
:10087000F008EF2FFFEE33FEEC33FCEE9DEC9840DA
:1008800005FCEE9DFE0FD5F0E9E4CEFD22EDF8F576
:10089000F0EE8420D21CFEADF075F008EF2FFFEDD6
:1008A00033FD4007985006D5F0F222C398FD0FD5CE
:1008B000F0EA22EB9FF5F0EA9E42F0E99D42F0EC6F
:1008C0006480C864809845F022E86010ECA2E713C9
:1008D000FCED13FDEE13FEEF13FFD8F0227BFF7A41
:1008E0000E79877E00AD07AC068B698A6A896B1228
:1008F0000CE48E6E8F6FEC704EED14B40800504710
:1009000090090E75F003A4C58325F0C58373020911
:100910002602092A02092E02093202093602093A80
:1009200002093E0209427F80801A7F9080167F88EC
:1009300080127F98800E7FA0800A7FB080067FA8FB
:1009400080027FB8120DF9E4F56CF56DC3E56D9585
:100950006FE56C956E501EAB69AA6AA96B120D9C6F
:100960007401256BF56BE4356AF56A056DE56D700C
:10097000DB056C80D722787FE4F6D8FD75817302A1
:1009800009BD020E4CE493A3F8E493A34003F68060
:1009900001F208DFF48029E493A3F85407240CC87B
:1009A000C333C4540F4420C8834004F45680014626
:1009B000F6DFE4800B0102040810204080900B4613
:1009C000E47E019360BCA3FF543F30E509541FFE51
:1009D000E493A360010ECF54C025E060A840B8E4C2
:1009E00093A3FAE493A3F8E493A3C8C582C8CAC545
:1009F00083CAF0A3C8C582C8CAC583CADFE9DEE7D7
:100A000080BE8E5D8F5E7BFF7A0E79917F037E00C4
:100A10001208E5E51AC4540F2430F535E51A540FD1
:100A20002430F53675373A75383AE519C4540F2431
:100A300030F539E519540F2430F53A753B3A753CD9
:100A40003AE518C4540F2430F53DE518540F24300E
:100A5000F53EE4F53FFB7A0079357F04FE1208E5A8
:100A6000E558600E14600714700D7F9880067F9A19
:100A700080027F9C120DF97F0F020DF98E5D8F5E53
:100A80007F011208DD7BFF7A0E79877F027E0012DC
:100A900008E57F031208DD7BFF7A0E79877F047EED
:100AA000001208E5E55D703AE55E14601414601B01
:100AB0001460222403702B7BFF7A0E798C7F0180D7
:100AC0001C7BFF7A0E798C7F0280127BFF7A0E7975
:100AD0008C7F0380087BFF7A0E798C7F047E001266
:100AE00008E522120DB120A35C30A3FD7F28120E71
:100AF00054120C798F69120C79A907120C79AC0782
:100B0000120C79AB07120C798F6C7F19120E54E915
:100B1000FFE5692FFFE433FEEC7583002FFFE583CB
:100B20003EFEEB2FFFE5833EFEE56CB50717E58340
:100B3000B50612896A8B6BAE04EE753300F5347519
:100B4000590085695A220E090081008300850087BB
:100B50000089008B008D0E1E0080008200840086BC
:100B60000088008A008C072C5015142210061703E9
:100B7000180000000233000002590000015B000170
:100B80001700011C00015800011B0000E51B700349
:100B9000120259E55B7F0070027F018F5BE52CB587
:100BA0001812E52DB5190DE52EB51B08751B04E4CB
:100BB000FF120DF9E51B6404700AB2A27F0AFE124F
:100BC0000E3880F07FF47E01020D04E4FD7F8E126A
:100BD0000DC8E4FCECC39407748094805015EC2598
:100BE000E0241EF808E6FF742C2CF8E6FD120DC870
:100BF0000C80E17D807F8E020DC8120C01EB54F059
:100C0000FFE4FDFCAE05A806EF088002C333D8FC64
:100C100030E704D2A58002C2A5C2A7D2A70DBD00AD
:100C2000010CED64084C70DC227F34120DF97F0357
:100C3000120DF9E5172440FF120DF97F30120DF95E
:100C40007F327E00120D047F0C120DF97F327E0080
:100C5000020D04E4FDFCA2B4E433FEC43333335488
:100C600080FBEFC3134BFFD2B600C2B6000DBD0030
:100C7000010CED64084C70DE22E4FEFDEDC3940827
:100C800074809480501630A3FD7F08120E54EE2518
:100C9000E0FE30A3010E20A3FD0D80E0AF0622E4AC
:100CA000FD7F8E120DC8AD187FC2120DC8AD197F21
:100CB000C4120DC8AD1A7FC6120DC87D807F8E028A
:100CC0000DC8E4F9E9C39408748094805015E925AF
:100CD000E02409F808E6FF120D5D742C29F8A60738
:100CE0000980E1228B708A718972E4FFFEAB70AAE1
:100CF00071A9728F828E8312083160070FBF0001C5
:100D00000E80EA22D3EF9400EE940040147D707CB4
:100D100000ED1D70011CED4C70F7EF1F70E61E809A
:100D2000E322D3EF9400EE940040147D6E7C00ED3E
:100D30001D70011CED4C70F7EF1F70E61E80E32262
:100D4000E4FBFAEF1392B4EFC313FFD2B600C2B6BE
:100D5000000BBB00010AEB64084A70E722C2B50031
:100D6000C2B600D2B500120D4000120C53C2B5003D
:100D7000D2B600C2B400D2B40022120E43120C3B11
:100D8000E4FF120DF9120DDE120CC2120006120C55
:100D90003BE4FF020DF9AB00AA00A900120818FFFE
:100DA000AB07D2A67FFA120BFAEBC454F0FF020C89
:100DB00001D2A37F02120E54C2A37F147E00120D33
:100DC00022D2A37F1E020E54AE05C2B500C2B600E9
:100DD000D2B500120D40AF06120D40C2B5227FC33E
:100DE000120D5D8F187FC5120D5D8F197FC7120D13
:100DF0005D8F1A22E5004480FFAB07D2A67FF81270
:100E00000BFAEBC454F0FF020C01EF4E60087418AB
:100E10002558F806800674182558F816020A02EFBD
:100E20004E6008742C2558F8068006742C2558F856
:100E3000160207047F017E00EF1FAC0670011E4CF6
:100E400070F622D288D2A8D2AFD2B222120D7A1274
:100E50000B8C80FBDFFE222020C8D5C6DA202020A4
:100E60002020202020D6DC0020202020CAB1BCE495
:100E70000020202020C5A9C0FA00CEC2B6C820207C
:100E80002020CAAAB6C80020202020002020A1FAD5
:100E900000C9E8D6C3C4D6D6D300C9E8D6C3C8D5DE
:100EA000C6DA20202020D6DC00C9E8D6C3CAB1BCEF
:100EB000E40020202020C9E8D6C3CAB1BCE4202029
:100EC00020200020202020C9E8D6C3C4D6D6D320B5
:100ED0002020200020202020B9D8D3DACED2C3C7CA
:100EE000202020200020202020B7B5BBD8CAB1D6B2
:100EF000D320202020000000001F003B005A007873
:100F0000009700B500D400F301110130014E964561
:100F10004AB84A4CA541AAB66A49ADBD5D522D47B3
:100F200095BA954E4A435537D54A5ABFBA535B488E
:100F30002BBC2B5093454AB9AA4CD541DAB6B64AD8
:100F4000573D4E512646933A534DAA43B5376D4B04
:100F5000AEBFAD534D4825BC254F5244AA385A4C1C
:100F60006D41ADB69B4A4BBE4B51A54652BAD24ECF
:020F7000DA4263
:00000001FF
