:10000000020026D2AFD2ACD29C758920D28E8F8DC1
:100010008F8BC29FD29EC298C2992212016B12018D
:100020004780FB020134787FE4F6D8FD75810C022D
:10003000006D02001BE493A3F8E493A34003F68051
:1000400001F208DFF48029E493A3F85407240CC8D4
:10005000C333C4540F4420C8834004F4568001467F
:10006000F6DFE4800B010204081020408090016359
:10007000E47E019360BCA3FF543F30E509541FFEAA
:10008000E493A360010ECF54C025E060A840B8E41B
:1000900093A3FAE493A3F8E493A3C8C582C8CAC59E
:1000A00083CAF0A3C8C582C8CAC583CADFE9DEE730
:1000B00080BEBB010CE58229F582E5833AF583E039
:1000C000225006E92582F8E622BBFE06E92582F8E1
:1000D000E222E58229F582E5833AF583E49322BCA6
:1000E000000BBE0029EF8DF084FFADF022E4CCF8C8
:1000F00075F008EF2FFFEE33FEEC33FCEE9DEC982D
:100100004005FCEE9DFE0FD5F0E9E4CEFD22EDF8B2
:10011000F5F0EE8420D21CFEADF075F008EF2FFF55
:10012000ED33FD4007985006D5F0F222C398FD0F3D
:10013000D5F0EA2220990FC2AC859908750B00759D
:100140000C01C298D2AC32E50C450B6005AF081229
:100150000158E4F50BF50C222098078F993099FD92
:10016000C29922020B0000010800007FFD7E000200
:0201700000038A
:00000001FF
