:10000000020165BB010CE58229F582E5833AF5839F
:10001000E0225006E92582F8E622BBFE06E92582A9
:10002000F8E222E58229F582E5833AF583E493221A
:10003000BC000BBE0029EF8DF084FFADF022E4CCB4
:10004000F875F008EF2FFFEE33FEEC33FCEE9DEC7D
:10005000984005FCEE9DFE0FD5F0E9E4CEFD22EDC3
:10006000F8F5F0EE8420D21CFEADF075F008EF2F0D
:10007000FFED33FD4007985006D5F0F222C398FDFE
:100080000FD5F0EA227BFF7F018B088A09890AE4F9
:10009000F50BF50CEF64014E70047F808008EF646F
:1000A000024E70057FC0120159E4F50BF50CAB0848
:1000B000AA09A90A850C82850B83120003FF601D23
:1000C0001201797F027E0012011E050CE50C700200
:1000D000050BC39410E50B6480948040D122E47A30
:1000E000017995FE1200857BFF7A0179A07F027E5F
:1000F00000120089E4FAFB7F1C1201597FC87E00C0
:1001000012011E0BBB00010AEB64104A70E9228F3A
:10011000807F057E0012011EC2A67F057E00D3EF00
:100120009400EE940040147D707C00ED1D70011C65
:10013000ED4C70F7EF1F70E61E80E322C2A5C2A649
:100140007F381201597F0E1201597A0179867E009B
:1001500012008520A0FD020181D2A6C2A5C2A7126D
:10016000010FD2A622787FE4F6D8FD75810E020138
:100170007112013C1200DE80FBD2A712010FD2A641
:10018000227F010201594D61646520427920363693
:10019000365351690049204C4F564520594F550060
:0601A0004368696E610076
:00000001FF
