:100000000200160201AF12019C1200A280FB02083E
:100010000000000201B6787FE4F6D8FD7581090280
:10002000005D020006E493A3F8E493A34003F68086
:1000300001F208DFF48029E493A3F85407240CC8E4
:10004000C333C4540F4420C8834004F4568001468F
:10005000F6DFE4800B010204081020408090000EBF
:10006000E47E019360BCA3FF543F30E509541FFEBA
:10007000E493A360010ECF54C025E060A840B8E42B
:1000800093A3FAE493A3F8E493A3C8C582C8CAC5AE
:1000900083CAF0A3C8C582C8CAC583CADFE9DEE740
:1000A00080BEE50945087036D290D291D292C293B3
:1000B00012017AE50945087025D290D291C29212B8
:1000C0000178E50945087016120172E509450870C6
:1000D0000DC290D291120176E509450860C4E50988
:1000E00045086038E50945086032C290D291120196
:1000F00076E50945086025120172E5094508601C8E
:10010000D290D291C292120178E5094508600DD2D1
:1001100090D291D292C29312017A80C222BC000B7B
:10012000BE0029EF8DF084FFADF022E4CCF875F02D
:1001300008EF2FFFEE33FEEC33FCEE9DEC9840050C
:10014000FCEE9DFE0FD5F0E9E4CEFD22EDF8F5F0D2
:10015000EE8420D21CFEADF075F008EF2FFFED33DA
:10016000FD4007985006D5F0F222C398FD0FD5F058
:10017000EA22D290C291D292D2937FE87E03D3EF4B
:100180009400EE940040147D707C00ED1D70011C05
:10019000ED4C70F7EF1F70E61E80E322D290D291F3
:1001A000D292D293D2AFD2A8D288D2AAD28A2275C2
:0D01B000080075090032750800750901325C
:00000001FF
